:100000006F00103113000000130000001300000007
:100010001300000013000000130000001300000094
:100020001300000013000000130000001300000084
:08003000130000007300100032
:1000380000000000000000000003000004030000AE
:1000480000000000A80A00000000000000000000F6
:10005800AA0A0000AC0A000000000000000000002E
:10006800AE0A000000000000B00A00000000000016
:10007800B20A0000B40A0000B60A0000B80A00007C
:10008800BA0A0000BC0A0000BE0A0000C00A00004C
:10009800C20A0000C40A0000C60A0000C80A00001C
:1000A800CA0A0000CC0A0000CE0A0000D00A0000EC
:1000B800D20A0000D40A0000D60A0000D80A0000BC
:1000C800DA0A0000DC0A0000DE0A0000E00A00008C
:1000D800E20A0000E40A0000E60A0000E80A00005C
:1000E800EA0A0000EC0A0000EE0A0000F00A00002C
:1000F800F20A0000F40A0000F60A0000F80A0000FC
:10010800FA0A0000FC0A0000FE0A0000000B0000CA
:10011800020B0000040B0000060B0000080B000097
:100128000A0B00000C0B00000E0B00000000000082
:080138000000000000000000BF
:10014000397101436EC619A0397141536AC866CA34
:1001500062CC5ECE19A0397101535AD056D252D416
:100160004ED64AD826DA22DC06DE3301614082828E
:1001700041114AC026C222C406C68282B24D410144
:10018000024D924C224CB24B4101024B924A224A00
:10019000B2494101024992442244B2404101828065
:1001A0003D432A876373C3029377F700BDEFADE544
:1001B000937606FF3D8ABA960CC34CC30CC74CC756
:1001C0004107E36BD7FE11E28280B306C3408A0683
:1001D0009702000096966780A6002307B700A30643
:1001E000B7002306B700A305B7002305B700A30493
:1001F000B7002304B700A303B7002303B700A3028B
:10020000B7002302B700A301B7002301B700A30082
:10021000B7002300B700828093F5F50F9396850011
:10022000D58D93960501D58D61B7939627009702DA
:10023000000096968682E78086FA9680C1171D8F09
:100240003E96E374C3F8A5B7EFF2FFF06D71AA8490
:10025000AE89328981451306000808089137B7270F
:100260000240C047058875FCB7066745938636127D
:100270003797EFCDD4C31307B79AD8C3D4D3D8D305
:100280009377F90F81E74A85EF009012937709F091
:100290003EC613070010B247A29796231C08A297E8
:1002A00096A30904E319E4FE8947B3C9F902268538
:1002B000814663CA360132450C08EF005012EF0048
:1002C000500E5161D9B5B247180A1021B307F94051
:1002D0008583B6978607BA971831850609052207E0
:1002E000518F2390E7F0F1B7814763C3C700828045
:1002F0003387F50014233307F500850714A3F5B7FA
:100300007300203001A0B7F700E0814694C7014791
:10031000D8C7B1473305F5020146B7F600E0984665
:10032000DC466314F600E36CA7FE8280896793873E
:10033000078073900780B7070020056723AAE700AE
:10034000B787000803C707C085476305F700239DEB
:1003500001808280856282828280370700206978EE
:100360002318070081468147014613070701050846
:10037000634BB60091C21EA314231833A387D18008
:100380002387E1808280B306C50083C80600A146AA
:1003900033C3F80013731300858363060300B3C7E8
:1003A0000701C207C183FD1693F6F60F93D8180014
:1003B000E5F2050685466DBFEFF29FDBB307B5009A
:1003C00084238033593F83C7F180014563979700A9
:1003D00003C5E180018D133515006DBB3717014052
:1003E00085462328D78083270780C19B93E7870012
:1003F0002320F78023A2018282803717014085469F
:100400002328D78083270780C19B93E737002320C9
:10041000F7808280EFF23FD437A72400A3840182C3
:10042000B71501401384918237F500E0130707F0F8
:1004300083A78580858BA1CF056703850182B715CA
:1004400001409384018237F800E0130787BB83A73C
:100450008580858BB9E769457D350149371A0140AB
:10046000A14913054003453583278A801820858BD1
:10047000B3972701D98F1CA00509E31439FF6945FB
:100480005935182085479CA02384E18211A8104586
:10049000544599E2E37EC7F813075006239DE18097
:1004A000EDB1032688008326C80099E2E371C7FAFC
:1004B00059DDFDB7EFF23FCAB71701400547AA84DF
:1004C00023AAE7802144B7190140054913054003D9
:1004D0001D3D93F71400138709808DC3232827013E
:1004E0007D141374F40F858475F013054003213DCA
:1004F000B7170140054723A8E78041B9232A270100
:10050000C5B7EFF2FFC6D53D130500036537F935D2
:1005100051B1EFF2FFC5D535130510FC613F7D3DAC
:1005200095B9EFF2FFC4D13D130520FC61377D354D
:1005300095B1EFF2FFC34111AA8401446344B400B2
:10054000410189B9B3878400038507002EC60504DD
:10055000953713054003453BB245CDB7EFF25FC178
:10056000693D37050020A54513050500D937BD3580
:1005700015B1011122CC4AC84EC606CE26CA52C4B5
:1005800000108387918193899181ADC383D52182A6
:10059000138AC1811385C1922310BA00313D29C548
:1005A0001385C182130600108145DD3E03570A0002
:1005B00081479384C1821389C19263CFE700913749
:1005C00023800900130104FEF2406244D2444249F0
:1005D000B249224A056182803306F9001022B386AF
:1005E000F400850790A2D1BF2D3FE9BF1387C192C8
:1005F0001C239384C19223A8F180142B1307D007E6
:10060000639FE6009824B547E31EF7FA98349307F2
:100610002004E319F7FA9937238A040065B7D42830
:10062000639BE600D42435476397E600D434130770
:100630002004E382E6FE83C684021307D007639D8D
:10064000E60083C6040235476398E60083C61402B9
:1006500013072004E381E6FC8DE7B8209C30D98F96
:10066000B830D98F89E713075006239DE180713395
:10067000130510FC81359387A1819A2305079AA35E
:100680005DA0054A63994703094789451385C192CF
:10069000239EE180153329D903A68180B71700086E
:1006A0006374F600BD3539BF83D521821385C182BD
:1006B000613E813D01BF1307F00F639AE7021147C6
:1006C00091451385C192239EE180FD31E30E05F033
:1006D000BA20239D0180931787002183D98FC207F9
:1006E00037070008C183BA9723A4F180D9B713074D
:1006F000E00F639CE702114791451385C192239E49
:10070000E1805D39E30205EEB82093070010630332
:100710004701BC302391F18285472380F9001307FC
:1007200000102396E1805D3971BD1307D00F6390EF
:10073000E702094789451385C192239EE180AD39BF
:10074000E30405EA5D39130510FCAD33E9BF094741
:100750006391E70289451385C192239EF180A939EF
:10076000E30405E803A78180B7170008E36CF7F2FC
:1007700089B791466395D706238C4181CDBD938778
:10078000418198438430050798C399E09304001091
:10079000130700082396E1808D3193872401C19BC4
:1007A0003301F140138934004A8681450A85CD3AE8
:1007B00083A5818026860A85053EA6850A85713E29
:1007C00083C7F1808A94CA859CA083C7E1800A858B
:1007D0009CB093070003BCA0A93B093129A88D4612
:1007E000E397D7E889451385C1928A89239EE180E2
:1007F000E13651F53D334E81F1B3EFF2FF941385AD
:10080000C192130620108145856923AA01802380A7
:1008100001820144EFF0DF989384418137FB00E0CF
:10082000938989BB1389C192F5368387918185C7E6
:1008300003D721829C4009076308F70283C691828F
:1008400033078900850714A39CC005049307201073
:10085000E31CF4FC11A803278B008327CB0099E34A
:1008600063F7E90023A0040029336FF07F9103C7E9
:100870009182B307890098A393071010E317F4FC43
:100880001387A1811E23D1071EA3C1B7EFF25F8E8C
:10089000B784000813060003938504C01385C19232
:1008A000EFF09FA41389C1928347290029476383EE
:1008B000E702FD1793F7F70F9306D00F63ECF600EE
:1008C000138604C0930500031385C1922301E90038
:1008D000EFF09F976FF01F8CEFF29F893717014061
:1008E000832707801305401F1304401FC19B93E714
:1008F00087002320F7808547232AF780EFF0BFA0E9
:10090000B714014083A78480858B91E71387E18129
:100910001E2385071EA329457D14EFF0DF9E7DF081
:1009200083D7E1811384E181B9C737170140832759
:100930000780231004001305401FC19B93E7470065
:100940002320F7808547232AF780EFF0DF9B93046D
:10095000401F3719014083278980858B81E71E203E
:1009600085071EA02945FD14EFF0FF99EDF41E2028
:1009700099C3EFF0BF9B6FF0FF81EFF26FFFB7F706
:1009800000E023A0070023A20700814694C7014787
:10099000D8C77D5690CBFD56D4CB2547411198C37F
:1009A0008545114502C202C402C66926854737142F
:1009B00001407C8293078004130504804C003EC6EE
:1009C0008D473EC4BD2C093F05472328E48083277B
:1009D0000480514793044006C19B93E7870023207E
:1009E000F480B7070020A381E7004D35393583D760
:1009F000A181E3FDF4FEEFF07F93CDBFB717024076
:100A00009843B706FFF81367170098C3D843758F4C
:100A1000D8C39843B706F7FEFD16758F98C3984361
:100A2000B706FCFFFD16758F98C3D843B70681FF44
:100A3000FD16758FD8C337079F0098C7B746024089
:100A400003A706801367070123A0E680D843B706F3
:100A5000C1FFFD16D8C3D843D8C3D8431367074096
:100A6000D8C3D843758FD8C3D843B7062800558F4D
:100A7000D8C39843B7060001558F98C3984393167F
:100A80006700E3DD06FED843B7160240719BD8C36A
:100A9000D84313672700D8C32147DC42B18BE39EBC
:100AA000E7FE828001A001A001A001A001A001A099
:100AB00001A001A001A001A001A001A001A001A02E
:100AC00001A001A001A001A001A001A001A001A01E
:100AD00001A001A001A001A001A001A001A001A00E
:100AE00001A001A001A001A001A001A001A001A0FE
:100AF00001A001A001A001A001A001A001A001A0EE
:100B000001A001A001A001A001A001A001A001A0DD
:100B100097010020938101D017210020130181BE8D
:100B2000170500001305452397F5FF1F9385854D95
:100B300017F6FF1F1306064E63FAC5008322050051
:100B400023A0550011059105E3EAC5FE17F5FF1F27
:100B50001305454C938501A36377B5002320050059
:100B60001105E36DB5FEFD42739002BC8D4273909A
:100B70004280B72200009382828873A0023097F2ED
:100B8000FFFF9382A24B93E2320073905230EFF05A
:100B9000FFE697020000938282DE739012347300A6
:100BA0002030372702401C4B93E707081CCB82807C
:100BB000B7270240984BB7060200137505F0558F12
:100BC00098CBC8CB984B1367070498CBD847058BB5
:100BD00075FF984B8176FD16758F98CB82803727ED
:100BE00002401C4BC166137505F0D58F1CCB5C47CA
:100BF000858BF5FF372702405C47898BF5FF372748
:100C0000024013060010B386F50003A80600B306E1
:100C1000F50023A006015447898AF5FE9107E39465
:100C2000C7FE1C4BB7062000D58F1CCBB727024050
:100C3000D847058B75FF984BC176FD16758F98CBFD
:100C400082809C4513F7070113F8F70001C7D841CC
:100C50003368E80037270240145B3707000F758FB1
:100C60004DEB85462385D182371701406315E5009A
:100C70009A2135839AA18E2113F7F50F39C31841B4
:100C80008146854E3D4F930F800293028004214E92
:100C90003396DE00B3F8C50063111603939826005F
:100CA00033131F011343F3FF3377E300B318180125
:100CB00033E7E8006397F70750C98506E39AC6FD56
:100CC00018C11307F00F6375B70454412146854ED0
:100CD0003D4F930F800293028004414EB398CE00A3
:100CE00033F715016392E802131726000117331337
:100CF000EF001343F3FFB376D3003317E800D98E28
:100D00006395F703232A15010506E319C6FD54C1AF
:100D1000828037170140E310E5F603C7A18221DF87
:100D200081BFE39C57F810C949BFE39F57FC2328B4
:100D30001501D9BF99C5371702401C4F5D8D08CFEB
:100D40008280B7170240984F1345F5FF798D88CF01
:040D5000828000009D
:100D5400343731001F060601300000000000000097
:010FFC000AEA
:00000001FF
